:020000040800F2
:1000000050080020FD0400085905000859050008A3
:1000100059050008590500085905000800000000AE
:10002000000000000000000000000000590500086A
:10003000590500080000000059050008590500088E
:100040005905000859050008590500085905000818
:100050005905000859050008850C000859050008D5
:1000600059050008590500085905000859050008F8
:1000700059050008590500085905000859050008E8
:1000800059050008590500085905000859050008D8
:1000900059050008590500085905000859050008C8
:1000A00059050008590500085905000859050008B8
:1000B0009D0C00085905000859050008590500085D
:1000C0005905000859050008590500085905000898
:1000D000590500085905000859050008D90C000801
:1000E0005905000859050008590500085905000878
:1000F0005905000859050008590500085905000868
:100100005905000859050008590500085905000857
:100110005905000859050008590500085905000847
:100120005905000859050008590500085905000837
:100130005905000859050008590500085905000827
:100140005905000859050008590500085905000817
:100150005905000859050008590500085905000807
:1001600059050008590500085905000859050008F7
:1001700059050008590500085905000859050008E7
:10018000590500085905000890B484B000AF024634
:100190000B46FA71BB710023FB60BB7903F00303CC
:1001A0009B000F2202FA03F3FB60154BBA79920809
:1001B000D2B21349B8798008C0B2023051F8200099
:1001C000F968C9430140023243F822100C4BBA7956
:1001D0009208D2B20A49B8798008C0B2023051F808
:1001E0002000FC79B97901F00301890004FA01F1DA
:1001F0000143023243F822101037BD4690BC7047CD
:100200000038014080B58AB000AF786039600023C3
:100210007B6200233B620023FB610023BB617B68A0
:100220001B8A9BB27B627B6A23F440537B623B68F0
:10023000DB887A6A13437B627B6A9AB27B681A8294
:100240007B689B899BB27B627B6A23F4B05323F06B
:100250000C037B623B689A883B681B8913439AB204
:100260003B685B8913439BB27A6A13437B627B6A68
:100270009AB27B689A817B689B8A9BB27B627B6A1D
:1002800023F440737B623B689B897A6A13437B62E9
:100290007B6A9AB27B689A8207F10803184600F0DD
:1002A000D1F97A68314B9A4203D07A68304B9A423E
:1002B00002D17B693B6201E03B693B627B689B89C1
:1002C0009BB29BB21BB2002B0CDA3A6A13469B001E
:1002D00013449A001A443B681B685B00B2FBF3F3BB
:1002E000FB610BE03A6A13469B0013449A001A44E0
:1002F0003B681B689B00B2FBF3F3FB61FA691D4B83
:10030000A3FB02135B091B017B627B6A1B0964224E
:1003100002FB03F3FA69D31ABB617B689B899BB22A
:100320009BB21BB2002B0DDABB69DB0003F132027A
:10033000104BA3FB02135B0903F007037A6A134314
:100340007B620CE0BB691B0103F13202094BA3FB8A
:1003500002135B0903F00F037A6A13437B627B6A23
:100360009AB27B681A812837BD4680BD00100140D3
:10037000001401401F85EB5180B483B000AF78605A
:100380000B46FB70FB78002B08D07B689B899BB2E7
:1003900043F400539AB27B689A8107E07B689B899B
:1003A0009BB223F400539AB27B689A810C37BD4606
:1003B0005DF8047B704700BF80B483B000AF786005
:1003C0000B467B807B88C3F308039AB27B689A80D4
:1003D0000C37BD465DF8047B704700BF80B483B026
:1003E00000AF78607B689B889BB2C3F308039BB225
:1003F00018460C37BD465DF8047B704780B487B063
:1004000000AF786013460A467A807B7000233B6118
:100410000023FB600023BB6000237B617B687B6162
:100420007B88DBB25B09DBB23B617B8803F01F0397
:10043000FB60FB68012202FA03F3BB603B69012BFE
:1004400003D17B690C337B6109E03B69022B03D14B
:100450007B6910337B6102E07B6914337B617B78BD
:10046000002B06D07B697A691168BA680A431A6062
:1004700006E07B697A691168BA68D2430A401A605B
:100480001C37BD465DF8047B704700BF80B485B063
:1004900000AF78600B467B800023FB737B681B8872
:1004A0009AB27B8813409BB2002B02D00123FB73CE
:1004B00001E00023FB73FB7B18461437BD465DF853
:1004C000047B704780B485B000AF78600B467B80BA
:1004D0000023FB810023BB817B881B0AFB81FB89F6
:1004E000012202FA03F3BB81BB89DB439AB27B682A
:1004F0001A801437BD465DF8047B704780B582B022
:1005000000AF104B7B60104B3B6007E03B681A1D4F
:100510003A607A68111D796012681A603A680B4B6C
:100520009A42F3D30A480B494FF000028842B8BF01
:1005300040F8042BFFF6FAAF00F012F80837BD467A
:1005400080BD00BF281400080000002040000020EB
:10055000400000204C00002080B400AFFEE700BF48
:1005600080B500AF00F0CCFB054B1B78012B06D10A
:10057000044B9B790D2B02D100F02CF8F4E7F3E744
:10058000400000204400002080B582B000AF0F4B37
:1005900001221A7000F060FB0346FB7000237B60B1
:1005A0000AE07B6801330A4AD25C09497B680B4444
:1005B0001A707B6801337B607B68052BF1DD044B8F
:1005C000FA789A710837BD4680BD00BF4000002010
:1005D0004400002080B500AF13481449032200F006
:1005E000B7FE0346002B1AD1114B1A78114B1B781A
:1005F0009A4214D1104B1A78104B1B789A4207D1AB
:100600000A4BDB78303BDBB2184600F0F5FA06E027
:10061000064BDB78303BDBB2184600F005FB084B9D
:1006200000221A7080BD00BF04140008440000209E
:1006300008140008480000200C140008490000209D
:100640004000002080B489B000AF78600023BB6117
:1006500000237B610023FB6102233B610023FB60DD
:100660000223BB60484B9B6803F00C03BB61BB6972
:10067000042B07D0082B09D0002B3FD17B68434ABD
:100680001A603FE07B68424A1A603BE03E4B5B6881
:1006900003F480039B0DFB603B4B5B6803F03F035F
:1006A000BB60FB68002B0DD0394ABB68B2FBF3F28C
:1006B000354B596847F6C0730B409B0903FB02F3A7
:1006C000FB610CE0314ABB68B2FBF3F22E4B596878
:1006D00047F6C0730B409B0903FB02F3FB612A4BF7
:1006E0005B6803F440331B0C01335B003B61FA6928
:1006F0003B69B2FBF3F27B681A6003E07B68234A34
:100700001A6000BF204B9B6803F0F003BB61BB691C
:100710001B09BB611F4ABB6913441B78DBB27B61B9
:100720007B681A687B69DA407B685A60164B9B6865
:1007300003F4E053BB61BB699B0ABB61154ABB690B
:1007400013441B78DBB27B617B685A687B69DA40B3
:100750007B689A600C4B9B6803F46043BB61BB6988
:100760005B0BBB610B4ABB6913441B78DBB27B613B
:100770007B685A687B69DA407B68DA602437BD465B
:100780005DF8047B704700BF003802400024F4008D
:1007900040787D010000002080B483B000AF786015
:1007A0000B46FB70FB78002B06D0094B084A116BF7
:1007B0007A680A431A6306E0054B054A116B7A68AA
:1007C000D2430A401A630C37BD465DF8047B70477C
:1007D0000038024080B483B000AF78600B46FB70F5
:1007E000FB78002B06D0094B084A116C7A680A4343
:1007F0001A6406E0054B054A116C7A68D2430A4038
:100800001A640C37BD465DF8047B7047003802401F
:1008100080B483B000AF78600B46FB70FB78002B90
:1008200006D0094B084A516C7A680A435A6406E0BC
:10083000054B054A516C7A68D2430A405A640C371A
:10084000BD465DF8047B70470038024080B485B037
:1008500000AF786039600023FB600023FB727B6887
:100860005B68FB60FB6823F0407323F48073FB60DC
:100870003B681B791A023B681B681343FA681343F1
:10088000FB607B68FA685A607B689B68FB60FA686B
:10089000174B1340FB603B681A693B68DB681A43DF
:1008A0003B689B681A433B685B795B001343FA68BB
:1008B0001343FB607B68FA689A607B68DB6AFB60C5
:1008C000FB6823F47003FB603B681B7D013BDAB2DD
:1008D000FB7A1343FB72FB7A1B05FA681343FB6038
:1008E0007B68FA68DA621437BD465DF8047B7047AE
:1008F000FDF7FFC080B483B000AF78607B68002252
:100900001A607B6800221A717B6800225A717B682A
:1009100000229A607B680022DA607B6800221A61FC
:100920007B6801221A750C37BD465DF8047B704761
:1009300080B485B000AF78600023FB600E4B5B682D
:10094000FB60FA680D4B1340FB607B681A687B689C
:100950005B681A437B689B681A437B68DB681343B8
:10096000FA681343FB60044BFA685A601437BD46BB
:100970005DF8047B704700BF00230140E030FCFFBE
:1009800080B483B000AF78607B6800221A607B6817
:1009900000225A607B6800229A607B680022DA603D
:1009A0000C37BD465DF8047B704700BF80B483B050
:1009B00000AF78600B46FB70FB78002B06D07B689D
:1009C0009B6843F001027B689A6005E07B689B6846
:1009D00023F001027B689A600C37BD465DF8047B0A
:1009E000704700BF80B487B000AF786039600023E3
:1009F0007B6100233B610023FB6000237B6176E089
:100A00007B69012202FA03F33B613B681A683B6988
:100A10001340FB60FA683B699A4265D17B681A68AB
:100A20007B695B00032101FA03F3DB431A407B6817
:100A30001A607B681A683B681B7919467B695B0002
:100A400001FA03F31A437B681A603B681B79012B98
:100A500003D03B681B79022B2ED17B689A687B6997
:100A60005B00032101FA03F3DB431A407B689A60C1
:100A70007B689A683B685B7919467B695B0001FA81
:100A800003F31A437B689A607B685A687B699BB260
:100A9000012101FA03F3DB431A407B685A607B684B
:100AA0005A683B689B7919467B699BB201FA03F34C
:100AB0009BB21A437B685A607B68DA687B699BB299
:100AC0005B00032101FA03F3DB431A407B68DA6021
:100AD0007B68DA683B68DB7919467B695B0001FA61
:100AE00003F31A437B68DA607B6901337B617B69BE
:100AF0000F2B85D91C37BD465DF8047B704700BFBE
:100B000080B483B000AF78607B684FF6FF721A60E4
:100B10007B6800221A717B6800225A717B68002270
:100B20009A717B680022DA710C37BD465DF8047B50
:100B3000704700BF80B483B000AF78600B467B8005
:100B40007B687A881A830C37BD465DF8047B704752
:100B500080B483B000AF78600B467B807B687A8876
:100B60005A830C37BD465DF8047B704780B485B06E
:100B700000AF786013460A467A807B700023FB60E2
:100B80000023BB607A787B8803F007039B0002FA9E
:100B900003F3FB607B88DB089BB21A467B88DB088B
:100BA0009BB219467B68083153F821107B8803F00B
:100BB00007039B000F2000FA03F3DB4319407B6817
:100BC000083243F822107B88DB089BB21A467B6808
:100BD000083253F82220FB681343BB607B88DB0894
:100BE0009BB21A467B680832B96843F82210143762
:100BF000BD465DF8047B704780B582B000AF034608
:100C0000FB71FA79064B53F82220F979054B33F83A
:100C1000113010461946FFF78DFF0837BD4680BDDD
:100C2000100000201014000880B582B000AF034609
:100C3000FB71FA79064B53F82220F979054B33F80A
:100C4000113010461946FFF783FF0837BD4680BDB7
:100C5000100000201014000880B582B000AF0848D2
:100C6000FFF7BCFB0346FB71FB799BB204481946B6
:100C7000FFF7A2FBFB7918460837BD4680BD00BFD1
:100C80000048004080B500AF012000F0F7F90346AE
:100C9000002B02D0012000F0E3F980BD80B500AF49
:100CA0004FF08040012100F019FB0346002B10D0CB
:100CB0004FF08040012100F03BFB064B1B889BB2AC
:100CC000002B06D0034B1B889BB2013B9AB2014B11
:100CD0001A8080BD4200002080B500AF0748202167
:100CE000FFF7D4FB0346012B06D1044840F22551FF
:100CF000FFF7E8FBFFF748FC80BD00BF004800405D
:100D000080B500AF00F00AF800F028F800F060F8B5
:100D100000F08EF800F0D4F880BD00BF80B582B03E
:100D200000AF08200121FFF737FDCF233B603B6870
:100D300043F47C433B6001233B7102237B7100231E
:100D4000BB710023FB713B4603481946FFF74AFE7F
:100D50000837BD4680BD00BF000C024080B586B09C
:100D600000AF01200121FFF717FD01233B610023A4
:100D70003B7502237B750023BB750223FB7507F1CE
:100D8000100312481946FFF72DFE00200021FFF73F
:100D9000FBF901237B6000233B7210237B7201234C
:100DA000BB723B1D184600F0EDF806233B73012390
:100DB0007B730123BB730123FB7307F10C031846FC
:100DC00000F080F91837BD4680BD00BF000002402A
:100DD00080B584B000AF1C233B7000237B700123DF
:100DE000BB700123FB703B46184600F06BF90120F5
:100DF0000121FFF7EFFC4FF47A73BB600F23BB8038
:100E00000023BB810023FB803B1D4FF0804019462F
:100E100000F0B6F94FF080400121012200F03AFACB
:100E20004FF08040012100F015FA1037BD4680BD1B
:100E300080B58CB000AF4FF480700121FFF7E8FC63
:100E400004200121FFF7A8FC07F128031846FFF74B
:100E500057FE0423BB62032387F82C3007F12803D5
:100E600015481946FFF7BEFD07F118031846FFF7AE
:100E700087FD4FF48033FB6107F118031846FFF735
:100E800057FD3B461846FFF735FD00233B603B46C8
:100E90000A481946FFF7DAFC08480121FFF786FDEA
:100EA0003B4606481946FFF7D1FC04480121FFF7ED
:100EB0007DFD3037BD4680BD000802400020014066
:100EC00080B588B000AF08200121FFF765FC4FF422
:100ED00080200121FFF77EFC0023BB730123FB73FD
:100EE00002233B734FF48073BB6002237B7307F1D3
:100EF000080322481946FFF775FD204808210722FC
:100F0000FFF734FE02233B734FF40073BB6007F11D
:100F100008031A481946FFF765FD184809210722FA
:100F2000FFF724FE4FF4E1333B610023BB82002333
:100F3000FB8200233B830023BB830C237B8307F1CD
:100F400010030F481946FFF75DF90D480121FFF71F
:100F500013FA0B4840F225510122FFF74FFA2723DD
:100F60003B7100237B710023BB710123FB713B1D8F
:100F7000184600F0A7F82037BD4680BD000C02409F
:100F80000048004080B485B000AF78600023FB606B
:100F9000324BFB607B689B79002B4DD02F4B2F4A47
:100FA00011687A681268D2430A401A602B4B2B4AA8
:100FB00051687A681268D2430A405A607B681B798C
:100FC000FA681344FB60FB68FA6811687A68126873
:100FD0000A431A60214B214A91687A681268D24309
:100FE0000A409A601D4B1D4AD1687A681268D24344
:100FF0000A40DA607B685B79102B0ED1174B174AD9
:1010000091687A6812680A439A60144B134AD1684F
:101010007A6812680A43DA601BE0104BFB607B6859
:101020005B79FA681344FB60FB68FA6811687A68B8
:1010300012680A431A600CE07B681B79FA68134453
:10104000FB60FB68FA6811687A681268D2430A404C
:101050001A601437BD465DF8047B7047003C0140C0
:1010600080B483B000AF7860034B7A685A610C3764
:10107000BD465DF8047B7047003C014080B485B0FC
:1010800000AF78600023FB730023BB600C4B1A6831
:101090007B681340BB600A4B5A697B681340002B86
:1010A00005D0BB68002B02D00123FB7301E00023B5
:1010B000FB73FB7B18461437BD465DF8047B704715
:1010C000003C014080B485B000AF78600023FB7322
:1010D0000023BB730F237B737B68DB78002B37D037
:1010E000254BDB68DB4303F4E0631B0AFB73FB7BEC
:1010F000C3F10403BB737A7BFB7B42FA03F37B737C
:101100007B685B781A46BB7B02FA03F3FB737B6850
:101110009A787B7B1340DAB2FB7B1343FB73FB7B38
:101120001B01FB73154A7B681B781344FA7B83F819
:101130000023124B7A6812785209D2B27968097882
:1011400001F01F01012000FA01F143F822100EE026
:101150000A4B7A6812785209D2B27968097801F09C
:101160001F01012000FA01F1203243F82210143748
:10117000BD465DF8047B704700ED00E000E100E053
:1011800080B485B000AF786039600023FB817B6854
:101190001B88FB817A68284B9A4213D07A68274BC8
:1011A0009A420FD07B68B3F1804F0BD07A68244B02
:1011B0009A4207D07A68234B9A4203D07A68224B2E
:1011C0009A4208D1FB8923F07003FB813B685A885F
:1011D000FB891343FB817A681C4B9A420CD07A68D6
:1011E0001B4B9A4208D0FB8923F44073FB813B6878
:1011F0001A89FB891343FB817B68FA891A803B6853
:101200005A687B68DA623B681A887B681A857A6854
:10121000094B9A4203D07A68084B9A4204D13B6842
:101220009B7A1A467B681A867B6801229A82143759
:10123000BD465DF8047B704700000140000401409A
:101240000004004000080040000C00400010004076
:101250000014004080B483B000AF78600B46FB7090
:10126000FB78002B08D07B681B889BB243F00103FE
:101270009AB27B681A8007E07B681B889BB223F0D8
:1012800001039AB27B681A800C37BD465DF8047B77
:10129000704700BF80B483B000AF786013460A4641
:1012A0007A807B707B78002B08D07B689B899AB210
:1012B0007B8813439AB27B689A8109E07B689B899B
:1012C0009AB27B88DB439BB213409AB27B689A81C7
:1012D0000C37BD465DF8047B704700BF80B485B015
:1012E00000AF78600B467B800023FB730023BB813B
:1012F00000237B817B681B8A9AB27B881340BB8169
:101300007B689B899AB27B8813407B81BB89002BC9
:1013100005D07B89002B02D00123FB7301E0002361
:10132000FB73FB7B18461437BD465DF8047B7047A2
:1013300080B483B000AF78600B467B807B88DB4352
:101340009AB27B681A820C37BD465DF8047B704701
:1013500030B4002A4AD040EA010313F003032DD130
:10136000032A2BD904680D68AC4227D1043A3DD03A
:10137000A4F1013525EA040414F0803F3CD10C4669
:1013800003460EE05B686468A3F10135A34225EAD9
:10139000030513D1043A29D015F0803F29D1034623
:1013A0000C46032A00F1040001F10401EAD8551E9D
:1013B0002AB918792279801A30BC7047551E0378F3
:1013C0000A7893421AD1DDB1B3B16C1C0C448B1C6A
:1013D000014604E0A3420CD001330028ECD011F800
:1013E000010F13F8012C9042F4D0E4E7104630BC12
:1013F0007047002030BC70471846DDE71846DAE732
:101400002846D9E74C4544003A000000310000006E
:1014100001000200040008004000800000040008F1
:081420000010002000400080D4
:101428000000000001020304010203040607080982
:10143800000C0240000C0240000C0240000C02406C
:10144800000C0240000C0240000C0240000C02405C
:10145800000C0240000C0240000C0240000C02404C
:0400000508000000EF
:00000001FF
